{
    "_format": "hh-sol-artifact-1",
    "contractName": "Collateral",
    "sourceName": "contracts/Collateral.sol",
    "abi": [
        {
            "inputs": [
                {
                    "internalType": "address",
                    "name": "_starknetContract",
                    "type": "address"
                },
                {
                    "internalType": "uint256",
                    "name": "_borrowContract",
                    "type": "uint256"
                }
            ],
            "stateMutability": "nonpayable",
            "type": "constructor"
        },
        {
            "inputs": [],
            "name": "MINT",
            "outputs": [
                {
                    "internalType": "uint256",
                    "name": "",
                    "type": "uint256"
                }
            ],
            "stateMutability": "view",
            "type": "function"
        },
        {
            "inputs": [],
            "name": "borrowContract",
            "outputs": [
                {
                    "internalType": "uint256",
                    "name": "",
                    "type": "uint256"
                }
            ],
            "stateMutability": "view",
            "type": "function"
        },
        {
            "inputs": [
                {
                    "internalType": "uint256",
                    "name": "borrowerL2",
                    "type": "uint256"
                },
                {
                    "internalType": "uint256",
                    "name": "amountLent",
                    "type": "uint256"
                },
                {
                    "internalType": "uint256",
                    "name": "amountBorrowed",
                    "type": "uint256"
                }
            ],
            "name": "collateralizeETH",
            "outputs": [],
            "stateMutability": "payable",
            "type": "function"
        },
        {
            "inputs": [
                {
                    "internalType": "uint256",
                    "name": "",
                    "type": "uint256"
                }
            ],
            "name": "debtAmounts",
            "outputs": [
                {
                    "internalType": "uint256",
                    "name": "",
                    "type": "uint256"
                }
            ],
            "stateMutability": "view",
            "type": "function"
        },
        {
            "inputs": [],
            "name": "starknet",
            "outputs": [
                {
                    "internalType": "contract IStarknetCore",
                    "name": "",
                    "type": "address"
                }
            ],
            "stateMutability": "view",
            "type": "function"
        },
        {
            "inputs": [
                {
                    "internalType": "uint256[]",
                    "name": "payload",
                    "type": "uint256[]"
                }
            ],
            "name": "withdraw",
            "outputs": [],
            "stateMutability": "nonpayable",
            "type": "function"
        }
    ],
    "bytecode": "0x60806040523480156200001157600080fd5b5060405162000dfc38038062000dfc8339818101604052810190620000379190620000e2565b81600160006101000a81548173ffffffffffffffffffffffffffffffffffffffff021916908373ffffffffffffffffffffffffffffffffffffffff160217905550806002819055506200009660006200009e60201b620007251760201c565b505062000195565b6001816000016000828254019250508190555050565b600081519050620000c58162000161565b92915050565b600081519050620000dc816200017b565b92915050565b60008060408385031215620000f657600080fd5b60006200010685828601620000b4565b92505060206200011985828601620000cb565b9150509250929050565b6000620001308262000137565b9050919050565b600073ffffffffffffffffffffffffffffffffffffffff82169050919050565b6000819050919050565b6200016c8162000123565b81146200017857600080fd5b50565b620001868162000157565b81146200019257600080fd5b50565b610c5780620001a56000396000f3fe6080604052600436106100555760003560e01c80632387ae2b1461005a5780633e36f4c7146100975780635568ac02146100c2578063983d95ce146100ed578063a23ce93714610116578063bb903eea14610132575b600080fd5b34801561006657600080fd5b50610081600480360381019061007c919061082b565b61015d565b60405161008e9190610a3f565b60405180910390f35b3480156100a357600080fd5b506100ac610175565b6040516100b99190610a3f565b60405180910390f35b3480156100ce57600080fd5b506100d761017a565b6040516100e49190610a3f565b60405180910390f35b3480156100f957600080fd5b50610114600480360381019061010f91906107bd565b610180565b005b610130600480360381019061012b9190610854565b610312565b005b34801561013e57600080fd5b506101476106ff565b60405161015491906109e4565b60405180910390f35b60036020528060005260406000206000915090505481565b600081565b60025481565b600160009054906101000a900473ffffffffffffffffffffffffffffffffffffffff1673ffffffffffffffffffffffffffffffffffffffff16632c9dd5c060025484846040518463ffffffff1660e01b81526004016101e193929190610a5a565b602060405180830381600087803b1580156101fb57600080fd5b505af115801561020f573d6000803e3d6000fd5b505050506040513d601f19601f820116820180604052508101906102339190610802565b508181600281811061026e577f4e487b7100000000000000000000000000000000000000000000000000000000600052603260045260246000fd5b9050602002013573ffffffffffffffffffffffffffffffffffffffff166108fc60036000858560018181106102cc577f4e487b7100000000000000000000000000000000000000000000000000000000600052603260045260246000fd5b905060200201358152602001908152602001600020549081150290604051600060405180830381858888f1935050505015801561030d573d6000803e3d6000fd5b505050565b813414610354576040517f08c379a000000000000000000000000000000000000000000000000000000000815260040161034b906109ff565b60405180910390fd5b808211610396576040517f08c379a000000000000000000000000000000000000000000000000000000000815260040161038d90610a1f565b60405180910390fd5b60006103a2600061073b565b90506000600767ffffffffffffffff8111156103e7577f4e487b7100000000000000000000000000000000000000000000000000000000600052604160045260246000fd5b6040519080825280602002602001820160405280156104155781602001602082028036833780820191505090505b5090508181600081518110610453577f4e487b7100000000000000000000000000000000000000000000000000000000600052603260045260246000fd5b602002602001018181525050848160018151811061049a577f4e487b7100000000000000000000000000000000000000000000000000000000600052603260045260246000fd5b6020026020010181815250503373ffffffffffffffffffffffffffffffffffffffff16816002815181106104f7577f4e487b7100000000000000000000000000000000000000000000000000000000600052603260045260246000fd5b60200260200101818152505060008160038151811061053f577f4e487b7100000000000000000000000000000000000000000000000000000000600052603260045260246000fd5b6020026020010181815250508281600481518110610586577f4e487b7100000000000000000000000000000000000000000000000000000000600052603260045260246000fd5b60200260200101818152505083816005815181106105cd577f4e487b7100000000000000000000000000000000000000000000000000000000600052603260045260246000fd5b602002602001018181525050600581600681518110610615577f4e487b7100000000000000000000000000000000000000000000000000000000600052603260045260246000fd5b602002602001018181525050600160009054906101000a900473ffffffffffffffffffffffffffffffffffffffff1673ffffffffffffffffffffffffffffffffffffffff16633e3aa6c56002546000846040518463ffffffff1660e01b815260040161068393929190610a8c565b602060405180830381600087803b15801561069d57600080fd5b505af11580156106b1573d6000803e3d6000fd5b505050506040513d601f19601f820116820180604052508101906106d59190610802565b508360036000848152602001908152602001600020819055506106f86000610725565b5050505050565b600160009054906101000a900473ffffffffffffffffffffffffffffffffffffffff1681565b6001816000016000828254019250508190555050565b600081600001549050919050565b60008083601f84011261075b57600080fd5b8235905067ffffffffffffffff81111561077457600080fd5b60208301915083602082028301111561078c57600080fd5b9250929050565b6000815190506107a281610bf3565b92915050565b6000813590506107b781610c0a565b92915050565b600080602083850312156107d057600080fd5b600083013567ffffffffffffffff8111156107ea57600080fd5b6107f685828601610749565b92509250509250929050565b60006020828403121561081457600080fd5b600061082284828501610793565b91505092915050565b60006020828403121561083d57600080fd5b600061084b848285016107a8565b91505092915050565b60008060006060848603121561086957600080fd5b6000610877868287016107a8565b9350506020610888868287016107a8565b9250506040610899868287016107a8565b9150509250925092565b60006108af83836109c6565b60208301905092915050565b60006108c78385610af2565b93507f07ffffffffffffffffffffffffffffffffffffffffffffffffffffffffffffff8311156108f657600080fd5b602083029250610907838584610b6c565b82840190509392505050565b600061091e82610ada565b6109288185610af2565b935061093383610aca565b8060005b8381101561096457815161094b88826108a3565b975061095683610ae5565b925050600181019050610937565b5085935050505092915050565b61097a81610b48565b82525050565b600061098d601083610b03565b915061099882610b7b565b602082019050919050565b60006109b0603083610b03565b91506109bb82610ba4565b604082019050919050565b6109cf81610b3e565b82525050565b6109de81610b3e565b82525050565b60006020820190506109f96000830184610971565b92915050565b60006020820190508181036000830152610a1881610980565b9050919050565b60006020820190508181036000830152610a38816109a3565b9050919050565b6000602082019050610a5460008301846109d5565b92915050565b6000604082019050610a6f60008301866109d5565b8181036020830152610a828184866108bb565b9050949350505050565b6000606082019050610aa160008301866109d5565b610aae60208301856109d5565b8181036040830152610ac08184610913565b9050949350505050565b6000819050602082019050919050565b600081519050919050565b6000602082019050919050565b600082825260208201905092915050565b600082825260208201905092915050565b6000819050919050565b600073ffffffffffffffffffffffffffffffffffffffff82169050919050565b6000819050919050565b6000610b5382610b5a565b9050919050565b6000610b6582610b1e565b9050919050565b82818337600083830152505050565b7f496e73756666696369656e742045544800000000000000000000000000000000600082015250565b7f416d6f756e74206c656e74206d7573742062652067726561746572207468616e60008201527f20616d6f756e7420626f72726f77656400000000000000000000000000000000602082015250565b610bfc81610b14565b8114610c0757600080fd5b50565b610c1381610b3e565b8114610c1e57600080fd5b5056fea26469706673582212202f4deb1097c934880c64ddb53dcbb3dbe103e648900b46b96d97aab6b6f92e8864736f6c63430008040033",
    "linkReferences": {},
    "deployedLinkReferences": {}
}