{
  "_format": "hh-sol-artifact-1",
  "contractName": "Collateral",
  "sourceName": "contracts/Collateral.sol",
  "abi": [
    {
      "inputs": [
        {
          "internalType": "address",
          "name": "_starknetContract",
          "type": "address"
        }
      ],
      "stateMutability": "nonpayable",
      "type": "constructor"
    },
    {
      "anonymous": false,
      "inputs": [
        {
          "indexed": false,
          "internalType": "uint256",
          "name": "debtId",
          "type": "uint256"
        },
        {
          "indexed": false,
          "internalType": "uint256",
          "name": "amountBorrowed",
          "type": "uint256"
        }
      ],
      "name": "Mint",
      "type": "event"
    },
    {
      "anonymous": false,
      "inputs": [
        {
          "indexed": true,
          "internalType": "address",
          "name": "previousOwner",
          "type": "address"
        },
        {
          "indexed": true,
          "internalType": "address",
          "name": "newOwner",
          "type": "address"
        }
      ],
      "name": "OwnershipTransferred",
      "type": "event"
    },
    {
      "anonymous": false,
      "inputs": [
        {
          "indexed": false,
          "internalType": "uint256",
          "name": "debtId",
          "type": "uint256"
        },
        {
          "indexed": false,
          "internalType": "uint256",
          "name": "withdrawType",
          "type": "uint256"
        }
      ],
      "name": "Withdraw",
      "type": "event"
    },
    {
      "inputs": [],
      "name": "MINT",
      "outputs": [
        {
          "internalType": "uint256",
          "name": "",
          "type": "uint256"
        }
      ],
      "stateMutability": "view",
      "type": "function"
    },
    {
      "inputs": [],
      "name": "borrowContract",
      "outputs": [
        {
          "internalType": "uint256",
          "name": "",
          "type": "uint256"
        }
      ],
      "stateMutability": "view",
      "type": "function"
    },
    {
      "inputs": [
        {
          "internalType": "uint256",
          "name": "borrowerL2",
          "type": "uint256"
        },
        {
          "internalType": "uint256",
          "name": "amountLent",
          "type": "uint256"
        },
        {
          "internalType": "uint256",
          "name": "amountBorrowed",
          "type": "uint256"
        }
      ],
      "name": "collateralizeETH",
      "outputs": [
        {
          "internalType": "uint256",
          "name": "",
          "type": "uint256"
        }
      ],
      "stateMutability": "payable",
      "type": "function"
    },
    {
      "inputs": [
        {
          "internalType": "uint256",
          "name": "",
          "type": "uint256"
        }
      ],
      "name": "debtAmounts",
      "outputs": [
        {
          "internalType": "uint256",
          "name": "",
          "type": "uint256"
        }
      ],
      "stateMutability": "view",
      "type": "function"
    },
    {
      "inputs": [],
      "name": "owner",
      "outputs": [
        {
          "internalType": "address",
          "name": "",
          "type": "address"
        }
      ],
      "stateMutability": "view",
      "type": "function"
    },
    {
      "inputs": [],
      "name": "renounceOwnership",
      "outputs": [],
      "stateMutability": "nonpayable",
      "type": "function"
    },
    {
      "inputs": [
        {
          "internalType": "uint256",
          "name": "_borrowContract",
          "type": "uint256"
        }
      ],
      "name": "setBorrowContract",
      "outputs": [],
      "stateMutability": "nonpayable",
      "type": "function"
    },
    {
      "inputs": [],
      "name": "starknet",
      "outputs": [
        {
          "internalType": "contract IStarknetCore",
          "name": "",
          "type": "address"
        }
      ],
      "stateMutability": "view",
      "type": "function"
    },
    {
      "inputs": [
        {
          "internalType": "address",
          "name": "newOwner",
          "type": "address"
        }
      ],
      "name": "transferOwnership",
      "outputs": [],
      "stateMutability": "nonpayable",
      "type": "function"
    },
    {
      "inputs": [
        {
          "internalType": "uint256[]",
          "name": "payload",
          "type": "uint256[]"
        }
      ],
      "name": "withdraw",
      "outputs": [],
      "stateMutability": "nonpayable",
      "type": "function"
    }
  ],
  "bytecode": "0x60806040523480156200001157600080fd5b5060405162001571380380620015718339818101604052810190620000379190620001af565b620000576200004b620000b660201b60201c565b620000be60201b60201c565b80600260006101000a81548173ffffffffffffffffffffffffffffffffffffffff021916908373ffffffffffffffffffffffffffffffffffffffff160217905550620000af60016200018260201b62000a341760201c565b5062000229565b600033905090565b60008060009054906101000a900473ffffffffffffffffffffffffffffffffffffffff169050816000806101000a81548173ffffffffffffffffffffffffffffffffffffffff021916908373ffffffffffffffffffffffffffffffffffffffff1602179055508173ffffffffffffffffffffffffffffffffffffffff168173ffffffffffffffffffffffffffffffffffffffff167f8be0079c531659141344cd1fd0a4f28419497f9722a3daafe3b4186f6b6457e060405160405180910390a35050565b6001816000016000828254019250508190555050565b600081519050620001a9816200020f565b92915050565b600060208284031215620001c257600080fd5b6000620001d28482850162000198565b91505092915050565b6000620001e882620001ef565b9050919050565b600073ffffffffffffffffffffffffffffffffffffffff82169050919050565b6200021a81620001db565b81146200022657600080fd5b50565b61133880620002396000396000f3fe6080604052600436106100915760003560e01c80638da5cb5b116100595780638da5cb5b14610169578063983d95ce14610194578063a23ce937146101bd578063bb903eea146101ed578063f2fde38b1461021857610091565b80632387ae2b14610096578063273a8a3c146100d35780633e36f4c7146100fc5780635568ac0214610127578063715018a614610152575b600080fd5b3480156100a257600080fd5b506100bd60048036038101906100b89190610ccf565b610241565b6040516100ca9190610f93565b60405180910390f35b3480156100df57600080fd5b506100fa60048036038101906100f59190610ccf565b610259565b005b34801561010857600080fd5b5061011161026b565b60405161011e9190610f93565b60405180910390f35b34801561013357600080fd5b5061013c61028f565b6040516101499190610f93565b60405180910390f35b34801561015e57600080fd5b50610167610295565b005b34801561017557600080fd5b5061017e6102a9565b60405161018b9190610edd565b60405180910390f35b3480156101a057600080fd5b506101bb60048036038101906101b69190610c61565b6102d2565b005b6101d760048036038101906101d29190610cf8565b61051d565b6040516101e49190610f93565b60405180910390f35b3480156101f957600080fd5b5061020261098a565b60405161020f9190610ef8565b60405180910390f35b34801561022457600080fd5b5061023f600480360381019061023a9190610c38565b6109b0565b005b60046020528060005260406000206000915090505481565b610261610a4a565b8060038190555050565b7f02f0b3c5710379609eb5495f1ecd348cb28167711b73609fe565a7273455035481565b60035481565b61029d610a4a565b6102a76000610ac8565b565b60008060009054906101000a900473ffffffffffffffffffffffffffffffffffffffff16905090565b600260009054906101000a900473ffffffffffffffffffffffffffffffffffffffff1673ffffffffffffffffffffffffffffffffffffffff16632c9dd5c060035484846040518463ffffffff1660e01b815260040161033393929190610fae565b602060405180830381600087803b15801561034d57600080fd5b505af1158015610361573d6000803e3d6000fd5b505050506040513d601f19601f820116820180604052508101906103859190610ca6565b50818160028181106103c0577f4e487b7100000000000000000000000000000000000000000000000000000000600052603260045260246000fd5b9050602002013573ffffffffffffffffffffffffffffffffffffffff166108fc600460008585600181811061041e577f4e487b7100000000000000000000000000000000000000000000000000000000600052603260045260246000fd5b905060200201358152602001908152602001600020549081150290604051600060405180830381858888f1935050505015801561045f573d6000803e3d6000fd5b507f56ca301a9219608c91e7bcee90e083c19671d2cdcc96752c7af291cee5f9c8c8828260018181106104bb577f4e487b7100000000000000000000000000000000000000000000000000000000600052603260045260246000fd5b90506020020135838360008181106104fc577f4e487b7100000000000000000000000000000000000000000000000000000000600052603260045260246000fd5b90506020020135604051610511929190610fe0565b60405180910390a15050565b6000823414610561576040517f08c379a000000000000000000000000000000000000000000000000000000000815260040161055890610f13565b60405180910390fd5b816305f5e10061056f610b8c565b8561057a91906110c2565b6105849190611091565b116105c4576040517f08c379a00000000000000000000000000000000000000000000000000000000081526004016105bb90610f73565b60405180910390fd5b60006105d06001610b99565b90506000600767ffffffffffffffff811115610615577f4e487b7100000000000000000000000000000000000000000000000000000000600052604160045260246000fd5b6040519080825280602002602001820160405280156106435781602001602082028036833780820191505090505b5090508181600081518110610681577f4e487b7100000000000000000000000000000000000000000000000000000000600052603260045260246000fd5b60200260200101818152505085816001815181106106c8577f4e487b7100000000000000000000000000000000000000000000000000000000600052603260045260246000fd5b6020026020010181815250503373ffffffffffffffffffffffffffffffffffffffff1681600281518110610725577f4e487b7100000000000000000000000000000000000000000000000000000000600052603260045260246000fd5b60200260200101818152505060008160038151811061076d577f4e487b7100000000000000000000000000000000000000000000000000000000600052603260045260246000fd5b60200260200101818152505083816004815181106107b4577f4e487b7100000000000000000000000000000000000000000000000000000000600052603260045260246000fd5b60200260200101818152505084816005815181106107fb577f4e487b7100000000000000000000000000000000000000000000000000000000600052603260045260246000fd5b602002602001018181525050600581600681518110610843577f4e487b7100000000000000000000000000000000000000000000000000000000600052603260045260246000fd5b602002602001018181525050600260009054906101000a900473ffffffffffffffffffffffffffffffffffffffff1673ffffffffffffffffffffffffffffffffffffffff16633e3aa6c56003547f02f0b3c5710379609eb5495f1ecd348cb28167711b73609fe565a72734550354846040518463ffffffff1660e01b81526004016108d093929190611009565b602060405180830381600087803b1580156108ea57600080fd5b505af11580156108fe573d6000803e3d6000fd5b505050506040513d601f19601f820116820180604052508101906109229190610ca6565b508460046000848152602001908152602001600020819055506109456001610a34565b7fcc9c58b575eabd3f6a1ee653e91fcea3ff546867ffc3782a3bbca1f9b6dbb8df8285604051610976929190610fe0565b60405180910390a181925050509392505050565b600260009054906101000a900473ffffffffffffffffffffffffffffffffffffffff1681565b6109b8610a4a565b600073ffffffffffffffffffffffffffffffffffffffff168173ffffffffffffffffffffffffffffffffffffffff161415610a28576040517f08c379a0000000000000000000000000000000000000000000000000000000008152600401610a1f90610f33565b60405180910390fd5b610a3181610ac8565b50565b6001816000016000828254019250508190555050565b610a52610ba7565b73ffffffffffffffffffffffffffffffffffffffff16610a706102a9565b73ffffffffffffffffffffffffffffffffffffffff1614610ac6576040517f08c379a0000000000000000000000000000000000000000000000000000000008152600401610abd90610f53565b60405180910390fd5b565b60008060009054906101000a900473ffffffffffffffffffffffffffffffffffffffff169050816000806101000a81548173ffffffffffffffffffffffffffffffffffffffff021916908373ffffffffffffffffffffffffffffffffffffffff1602179055508173ffffffffffffffffffffffffffffffffffffffff168173ffffffffffffffffffffffffffffffffffffffff167f8be0079c531659141344cd1fd0a4f28419497f9722a3daafe3b4186f6b6457e060405160405180910390a35050565b600064199c82cc00905090565b600081600001549050919050565b600033905090565b600081359050610bbe816112bd565b92915050565b60008083601f840112610bd657600080fd5b8235905067ffffffffffffffff811115610bef57600080fd5b602083019150836020820283011115610c0757600080fd5b9250929050565b600081519050610c1d816112d4565b92915050565b600081359050610c32816112eb565b92915050565b600060208284031215610c4a57600080fd5b6000610c5884828501610baf565b91505092915050565b60008060208385031215610c7457600080fd5b600083013567ffffffffffffffff811115610c8e57600080fd5b610c9a85828601610bc4565b92509250509250929050565b600060208284031215610cb857600080fd5b6000610cc684828501610c0e565b91505092915050565b600060208284031215610ce157600080fd5b6000610cef84828501610c23565b91505092915050565b600080600060608486031215610d0d57600080fd5b6000610d1b86828701610c23565b9350506020610d2c86828701610c23565b9250506040610d3d86828701610c23565b9150509250925092565b6000610d538383610ebf565b60208301905092915050565b610d688161111c565b82525050565b6000610d7a838561106f565b93507f07ffffffffffffffffffffffffffffffffffffffffffffffffffffffffffffff831115610da957600080fd5b602083029250610dba838584611186565b82840190509392505050565b6000610dd182611057565b610ddb818561106f565b9350610de683611047565b8060005b83811015610e17578151610dfe8882610d47565b9750610e0983611062565b925050600181019050610dea565b5085935050505092915050565b610e2d81611162565b82525050565b6000610e40601083611080565b9150610e4b826111f3565b602082019050919050565b6000610e63602683611080565b9150610e6e8261121c565b604082019050919050565b6000610e86602083611080565b9150610e918261126b565b602082019050919050565b6000610ea9601783611080565b9150610eb482611294565b602082019050919050565b610ec881611158565b82525050565b610ed781611158565b82525050565b6000602082019050610ef26000830184610d5f565b92915050565b6000602082019050610f0d6000830184610e24565b92915050565b60006020820190508181036000830152610f2c81610e33565b9050919050565b60006020820190508181036000830152610f4c81610e56565b9050919050565b60006020820190508181036000830152610f6c81610e79565b9050919050565b60006020820190508181036000830152610f8c81610e9c565b9050919050565b6000602082019050610fa86000830184610ece565b92915050565b6000604082019050610fc36000830186610ece565b8181036020830152610fd6818486610d6e565b9050949350505050565b6000604082019050610ff56000830185610ece565b6110026020830184610ece565b9392505050565b600060608201905061101e6000830186610ece565b61102b6020830185610ece565b818103604083015261103d8184610dc6565b9050949350505050565b6000819050602082019050919050565b600081519050919050565b6000602082019050919050565b600082825260208201905092915050565b600082825260208201905092915050565b600061109c82611158565b91506110a783611158565b9250826110b7576110b66111c4565b5b828204905092915050565b60006110cd82611158565b91506110d883611158565b9250817fffffffffffffffffffffffffffffffffffffffffffffffffffffffffffffffff048311821515161561111157611110611195565b5b828202905092915050565b600061112782611138565b9050919050565b6000819050919050565b600073ffffffffffffffffffffffffffffffffffffffff82169050919050565b6000819050919050565b600061116d82611174565b9050919050565b600061117f82611138565b9050919050565b82818337600083830152505050565b7f4e487b7100000000000000000000000000000000000000000000000000000000600052601160045260246000fd5b7f4e487b7100000000000000000000000000000000000000000000000000000000600052601260045260246000fd5b7f496e73756666696369656e742045544800000000000000000000000000000000600082015250565b7f4f776e61626c653a206e6577206f776e657220697320746865207a65726f206160008201527f6464726573730000000000000000000000000000000000000000000000000000602082015250565b7f4f776e61626c653a2063616c6c6572206973206e6f7420746865206f776e6572600082015250565b7f496e73756666696369656e7420636f6c6c61746572616c000000000000000000600082015250565b6112c68161111c565b81146112d157600080fd5b50565b6112dd8161112e565b81146112e857600080fd5b50565b6112f481611158565b81146112ff57600080fd5b5056fea26469706673582212203a72641454a01b413285728300674c5842747f4ce57395ec804bfa52184315c664736f6c63430008040033",
  "linkReferences": {},
  "deployedLinkReferences": {}
}